{
  "contractName": "Wallet",
  "abi": [
    {
      "inputs": [
        {
          "internalType": "string",
          "name": "_name",
          "type": "string"
        },
        {
          "internalType": "uint256",
          "name": "_numConfirmationsRequired",
          "type": "uint256"
        },
        {
          "internalType": "address[]",
          "name": "_owners",
          "type": "address[]"
        },
        {
          "internalType": "string[]",
          "name": "_ownerNames",
          "type": "string[]"
        }
      ],
      "stateMutability": "payable",
      "type": "constructor"
    },
    {
      "anonymous": false,
      "inputs": [
        {
          "indexed": true,
          "internalType": "address",
          "name": "owner",
          "type": "address"
        }
      ],
      "name": "AddOwner",
      "type": "event"
    },
    {
      "anonymous": false,
      "inputs": [
        {
          "indexed": true,
          "internalType": "address",
          "name": "owner",
          "type": "address"
        },
        {
          "indexed": true,
          "internalType": "uint256",
          "name": "txIndex",
          "type": "uint256"
        }
      ],
      "name": "ConfirmTransaction",
      "type": "event"
    },
    {
      "anonymous": false,
      "inputs": [
        {
          "indexed": true,
          "internalType": "address",
          "name": "sender",
          "type": "address"
        },
        {
          "indexed": false,
          "internalType": "uint256",
          "name": "amount",
          "type": "uint256"
        },
        {
          "indexed": false,
          "internalType": "uint256",
          "name": "balance",
          "type": "uint256"
        }
      ],
      "name": "Deposit",
      "type": "event"
    },
    {
      "anonymous": false,
      "inputs": [
        {
          "indexed": true,
          "internalType": "address",
          "name": "owner",
          "type": "address"
        },
        {
          "indexed": true,
          "internalType": "uint256",
          "name": "txIndex",
          "type": "uint256"
        }
      ],
      "name": "ExecuteTransaction",
      "type": "event"
    },
    {
      "anonymous": false,
      "inputs": [
        {
          "indexed": true,
          "internalType": "address",
          "name": "owner",
          "type": "address"
        },
        {
          "indexed": true,
          "internalType": "uint256",
          "name": "txIndex",
          "type": "uint256"
        }
      ],
      "name": "RevokeConfirmation",
      "type": "event"
    },
    {
      "anonymous": false,
      "inputs": [
        {
          "indexed": true,
          "internalType": "address",
          "name": "owner",
          "type": "address"
        },
        {
          "indexed": true,
          "internalType": "uint256",
          "name": "txIndex",
          "type": "uint256"
        },
        {
          "indexed": true,
          "internalType": "address",
          "name": "to",
          "type": "address"
        },
        {
          "indexed": false,
          "internalType": "uint256",
          "name": "value",
          "type": "uint256"
        },
        {
          "indexed": false,
          "internalType": "bytes",
          "name": "data",
          "type": "bytes"
        }
      ],
      "name": "SubmitTransaction",
      "type": "event"
    },
    {
      "inputs": [
        {
          "internalType": "uint256",
          "name": "",
          "type": "uint256"
        },
        {
          "internalType": "address",
          "name": "",
          "type": "address"
        }
      ],
      "name": "isConfirmed",
      "outputs": [
        {
          "internalType": "bool",
          "name": "",
          "type": "bool"
        }
      ],
      "stateMutability": "view",
      "type": "function"
    },
    {
      "inputs": [],
      "name": "name",
      "outputs": [
        {
          "internalType": "string",
          "name": "",
          "type": "string"
        }
      ],
      "stateMutability": "view",
      "type": "function"
    },
    {
      "inputs": [],
      "name": "numConfirmationsRequired",
      "outputs": [
        {
          "internalType": "uint256",
          "name": "",
          "type": "uint256"
        }
      ],
      "stateMutability": "view",
      "type": "function"
    },
    {
      "inputs": [
        {
          "internalType": "uint256",
          "name": "",
          "type": "uint256"
        }
      ],
      "name": "transactions",
      "outputs": [
        {
          "internalType": "address",
          "name": "destination",
          "type": "address"
        },
        {
          "internalType": "uint256",
          "name": "value",
          "type": "uint256"
        },
        {
          "internalType": "bytes",
          "name": "data",
          "type": "bytes"
        },
        {
          "internalType": "uint256",
          "name": "numConfirmations",
          "type": "uint256"
        },
        {
          "internalType": "bool",
          "name": "executed",
          "type": "bool"
        },
        {
          "internalType": "address",
          "name": "token",
          "type": "address"
        }
      ],
      "stateMutability": "view",
      "type": "function"
    },
    {
      "stateMutability": "payable",
      "type": "receive"
    },
    {
      "inputs": [
        {
          "internalType": "address",
          "name": "_owner",
          "type": "address"
        },
        {
          "internalType": "string",
          "name": "_ownerName",
          "type": "string"
        }
      ],
      "name": "addOwner",
      "outputs": [],
      "stateMutability": "nonpayable",
      "type": "function"
    },
    {
      "inputs": [
        {
          "internalType": "address payable",
          "name": "_destination",
          "type": "address"
        },
        {
          "internalType": "uint256",
          "name": "_amount",
          "type": "uint256"
        }
      ],
      "name": "withdraw",
      "outputs": [],
      "stateMutability": "nonpayable",
      "type": "function"
    },
    {
      "inputs": [
        {
          "internalType": "address",
          "name": "_destination",
          "type": "address"
        },
        {
          "internalType": "uint256",
          "name": "_value",
          "type": "uint256"
        },
        {
          "internalType": "bytes",
          "name": "_data",
          "type": "bytes"
        },
        {
          "internalType": "address",
          "name": "_token",
          "type": "address"
        }
      ],
      "name": "submitTransaction",
      "outputs": [],
      "stateMutability": "nonpayable",
      "type": "function"
    },
    {
      "inputs": [
        {
          "internalType": "uint256",
          "name": "_txIndex",
          "type": "uint256"
        }
      ],
      "name": "confirmTransaction",
      "outputs": [],
      "stateMutability": "nonpayable",
      "type": "function"
    },
    {
      "inputs": [
        {
          "internalType": "uint256",
          "name": "_txIndex",
          "type": "uint256"
        }
      ],
      "name": "executeTransaction",
      "outputs": [],
      "stateMutability": "nonpayable",
      "type": "function"
    },
    {
      "inputs": [
        {
          "internalType": "uint256",
          "name": "_txIndex",
          "type": "uint256"
        }
      ],
      "name": "revokeConfirmation",
      "outputs": [],
      "stateMutability": "nonpayable",
      "type": "function"
    },
    {
      "inputs": [],
      "name": "getBalance",
      "outputs": [
        {
          "internalType": "uint256",
          "name": "",
          "type": "uint256"
        }
      ],
      "stateMutability": "view",
      "type": "function"
    },
    {
      "inputs": [],
      "name": "getOwners",
      "outputs": [
        {
          "internalType": "address[]",
          "name": "",
          "type": "address[]"
        }
      ],
      "stateMutability": "view",
      "type": "function"
    },
    {
      "inputs": [
        {
          "internalType": "address",
          "name": "_owner",
          "type": "address"
        }
      ],
      "name": "getOwner",
      "outputs": [
        {
          "internalType": "address",
          "name": "owner",
          "type": "address"
        },
        {
          "internalType": "string",
          "name": "ownerName",
          "type": "string"
        }
      ],
      "stateMutability": "view",
      "type": "function"
    },
    {
      "inputs": [],
      "name": "getTransactions",
      "outputs": [
        {
          "components": [
            {
              "internalType": "address",
              "name": "destination",
              "type": "address"
            },
            {
              "internalType": "uint256",
              "name": "value",
              "type": "uint256"
            },
            {
              "internalType": "bytes",
              "name": "data",
              "type": "bytes"
            },
            {
              "internalType": "uint256",
              "name": "numConfirmations",
              "type": "uint256"
            },
            {
              "internalType": "bool",
              "name": "executed",
              "type": "bool"
            },
            {
              "internalType": "address",
              "name": "token",
              "type": "address"
            }
          ],
          "internalType": "struct Wallet.Transaction[]",
          "name": "",
          "type": "tuple[]"
        }
      ],
      "stateMutability": "view",
      "type": "function"
    },
    {
      "inputs": [],
      "name": "getTokens",
      "outputs": [
        {
          "internalType": "address[]",
          "name": "",
          "type": "address[]"
        }
      ],
      "stateMutability": "view",
      "type": "function"
    },
    {
      "inputs": [],
      "name": "getTransactionCount",
      "outputs": [
        {
          "internalType": "uint256",
          "name": "",
          "type": "uint256"
        }
      ],
      "stateMutability": "view",
      "type": "function"
    },
    {
      "inputs": [
        {
          "internalType": "uint256",
          "name": "_txId",
          "type": "uint256"
        }
      ],
      "name": "getTransaction",
      "outputs": [
        {
          "internalType": "address",
          "name": "destination",
          "type": "address"
        },
        {
          "internalType": "uint256",
          "name": "value",
          "type": "uint256"
        },
        {
          "internalType": "bytes",
          "name": "data",
          "type": "bytes"
        },
        {
          "internalType": "bool",
          "name": "executed",
          "type": "bool"
        },
        {
          "internalType": "uint256",
          "name": "numConfirmations",
          "type": "uint256"
        },
        {
          "internalType": "address",
          "name": "token",
          "type": "address"
        }
      ],
      "stateMutability": "view",
      "type": "function"
    },
    {
      "inputs": [
        {
          "internalType": "address",
          "name": "_address",
          "type": "address"
        }
      ],
      "name": "addTokenManage",
      "outputs": [],
      "stateMutability": "nonpayable",
      "type": "function"
    },
    {
      "inputs": [
        {
          "internalType": "string",
          "name": "_name",
          "type": "string"
        },
        {
          "internalType": "string",
          "name": "_symbol",
          "type": "string"
        },
        {
          "internalType": "uint8",
          "name": "_decimals",
          "type": "uint8"
        },
        {
          "internalType": "uint256",
          "name": "_total",
          "type": "uint256"
        }
      ],
      "name": "createToken",
      "outputs": [
        {
          "internalType": "contract W2TCoinERC20",
          "name": "",
          "type": "address"
        }
      ],
      "stateMutability": "nonpayable",
      "type": "function"
    },
    {
      "inputs": [
        {
          "internalType": "address",
          "name": "_addressToken",
          "type": "address"
        },
        {
          "internalType": "address",
          "name": "_addrWallet",
          "type": "address"
        }
      ],
      "name": "getBalanceOfToken",
      "outputs": [
        {
          "internalType": "uint256",
          "name": "",
          "type": "uint256"
        }
      ],
      "stateMutability": "view",
      "type": "function"
    }
  ],
  "bytecode": "0x608060405260405162005ccd38038062005ccd833981810160405281019062000029919062000819565b600082511162000070576040517f08c379a0000000000000000000000000000000000000000000000000000000008152600401620000679062000949565b60405180910390fd5b60008311801562000082575081518311155b620000c4576040517f08c379a0000000000000000000000000000000000000000000000000000000008152600401620000bb90620009e1565b60405180910390fd5b60005b825181101562000333576000838281518110620000e957620000e862000a03565b5b60200260200101519050600073ffffffffffffffffffffffffffffffffffffffff168173ffffffffffffffffffffffffffffffffffffffff160362000165576040517f08c379a00000000000000000000000000000000000000000000000000000000081526004016200015c9062000a82565b60405180910390fd5b600560008273ffffffffffffffffffffffffffffffffffffffff1673ffffffffffffffffffffffffffffffffffffffff16815260200190815260200160002060009054906101000a900460ff1615620001f5576040517f08c379a0000000000000000000000000000000000000000000000000000000008152600401620001ec9062000af4565b60405180910390fd5b6001600560008373ffffffffffffffffffffffffffffffffffffffff1673ffffffffffffffffffffffffffffffffffffffff16815260200190815260200160002060006101000a81548160ff0219169083151502179055506002819080600181540180825580915050600190039060005260206000200160009091909190916101000a81548173ffffffffffffffffffffffffffffffffffffffff021916908373ffffffffffffffffffffffffffffffffffffffff160217905550828281518110620002c657620002c562000a03565b5b6020026020010151600760008373ffffffffffffffffffffffffffffffffffffffff1673ffffffffffffffffffffffffffffffffffffffff16815260200190815260200160002090816200031b919062000d57565b505080806200032a9062000e6d565b915050620000c7565b5060001515600560003373ffffffffffffffffffffffffffffffffffffffff1673ffffffffffffffffffffffffffffffffffffffff16815260200190815260200160002060009054906101000a900460ff16151503620003f1576002339080600181540180825580915050600190039060005260206000200160009091909190916101000a81548173ffffffffffffffffffffffffffffffffffffffff021916908373ffffffffffffffffffffffffffffffffffffffff1602179055505b836000908162000402919062000d57565b50826001819055505050505062000eba565b6000604051905090565b600080fd5b600080fd5b600080fd5b600080fd5b6000601f19601f8301169050919050565b7f4e487b7100000000000000000000000000000000000000000000000000000000600052604160045260246000fd5b6200047d8262000432565b810181811067ffffffffffffffff821117156200049f576200049e62000443565b5b80604052505050565b6000620004b462000414565b9050620004c2828262000472565b919050565b600067ffffffffffffffff821115620004e557620004e462000443565b5b620004f08262000432565b9050602081019050919050565b60005b838110156200051d57808201518184015260208101905062000500565b60008484015250505050565b6000620005406200053a84620004c7565b620004a8565b9050828152602081018484840111156200055f576200055e6200042d565b5b6200056c848285620004fd565b509392505050565b600082601f8301126200058c576200058b62000428565b5b81516200059e84826020860162000529565b91505092915050565b6000819050919050565b620005bc81620005a7565b8114620005c857600080fd5b50565b600081519050620005dc81620005b1565b92915050565b600067ffffffffffffffff8211156200060057620005ff62000443565b5b602082029050602081019050919050565b600080fd5b600073ffffffffffffffffffffffffffffffffffffffff82169050919050565b6000620006438262000616565b9050919050565b620006558162000636565b81146200066157600080fd5b50565b60008151905062000675816200064a565b92915050565b6000620006926200068c84620005e2565b620004a8565b90508083825260208201905060208402830185811115620006b857620006b762000611565b5b835b81811015620006e55780620006d0888262000664565b845260208401935050602081019050620006ba565b5050509392505050565b600082601f83011262000707576200070662000428565b5b8151620007198482602086016200067b565b91505092915050565b600067ffffffffffffffff82111562000740576200073f62000443565b5b602082029050602081019050919050565b600062000768620007628462000722565b620004a8565b905080838252602082019050602084028301858111156200078e576200078d62000611565b5b835b81811015620007dc57805167ffffffffffffffff811115620007b757620007b662000428565b5b808601620007c6898262000574565b8552602085019450505060208101905062000790565b5050509392505050565b600082601f830112620007fe57620007fd62000428565b5b81516200081084826020860162000751565b91505092915050565b600080600080608085870312156200083657620008356200041e565b5b600085015167ffffffffffffffff81111562000857576200085662000423565b5b620008658782880162000574565b94505060206200087887828801620005cb565b935050604085015167ffffffffffffffff8111156200089c576200089b62000423565b5b620008aa87828801620006ef565b925050606085015167ffffffffffffffff811115620008ce57620008cd62000423565b5b620008dc87828801620007e6565b91505092959194509250565b600082825260208201905092915050565b7f4f776e6572732072657175697265640000000000000000000000000000000000600082015250565b600062000931600f83620008e8565b91506200093e82620008f9565b602082019050919050565b60006020820190508181036000830152620009648162000922565b9050919050565b7f496e76616c6964206e756d626572206f6620726571756972656420636f6e666960008201527f726d6174696f6e73000000000000000000000000000000000000000000000000602082015250565b6000620009c9602883620008e8565b9150620009d6826200096b565b604082019050919050565b60006020820190508181036000830152620009fc81620009ba565b9050919050565b7f4e487b7100000000000000000000000000000000000000000000000000000000600052603260045260246000fd5b7f696e76616c6964206f776e657200000000000000000000000000000000000000600082015250565b600062000a6a600d83620008e8565b915062000a778262000a32565b602082019050919050565b6000602082019050818103600083015262000a9d8162000a5b565b9050919050565b7f6f776e6572206e6f7420756e6971756500000000000000000000000000000000600082015250565b600062000adc601083620008e8565b915062000ae98262000aa4565b602082019050919050565b6000602082019050818103600083015262000b0f8162000acd565b9050919050565b600081519050919050565b7f4e487b7100000000000000000000000000000000000000000000000000000000600052602260045260246000fd5b6000600282049050600182168062000b6957607f821691505b60208210810362000b7f5762000b7e62000b21565b5b50919050565b60008190508160005260206000209050919050565b60006020601f8301049050919050565b600082821b905092915050565b60006008830262000be97fffffffffffffffffffffffffffffffffffffffffffffffffffffffffffffffff8262000baa565b62000bf5868362000baa565b95508019841693508086168417925050509392505050565b6000819050919050565b600062000c3862000c3262000c2c84620005a7565b62000c0d565b620005a7565b9050919050565b6000819050919050565b62000c548362000c17565b62000c6c62000c638262000c3f565b84845462000bb7565b825550505050565b600090565b62000c8362000c74565b62000c9081848462000c49565b505050565b5b8181101562000cb85762000cac60008262000c79565b60018101905062000c96565b5050565b601f82111562000d075762000cd18162000b85565b62000cdc8462000b9a565b8101602085101562000cec578190505b62000d0462000cfb8562000b9a565b83018262000c95565b50505b505050565b600082821c905092915050565b600062000d2c6000198460080262000d0c565b1980831691505092915050565b600062000d47838362000d19565b9150826002028217905092915050565b62000d628262000b16565b67ffffffffffffffff81111562000d7e5762000d7d62000443565b5b62000d8a825462000b50565b62000d9782828562000cbc565b600060209050601f83116001811462000dcf576000841562000dba578287015190505b62000dc6858262000d39565b86555062000e36565b601f19841662000ddf8662000b85565b60005b8281101562000e095784890151825560018201915060208501945060208101905062000de2565b8683101562000e29578489015162000e25601f89168262000d19565b8355505b6001600288020188555050505b505050505050565b7f4e487b7100000000000000000000000000000000000000000000000000000000600052601160045260246000fd5b600062000e7a82620005a7565b91507fffffffffffffffffffffffffffffffffffffffffffffffffffffffffffffffff820362000eaf5762000eae62000e3e565b5b600182019050919050565b614e038062000eca6000396000f3fe6080604052600436106200013f5760003560e01c806383920e9011620000af578063c01a8c84116200006d578063c01a8c8414620004d4578063d0549b851462000502578063ee22610b1462000532578063f3fef3a31462000560578063fa544161146200058e5762000199565b806383920e9014620003cd5780639ace38c214620003fd578063a0e67e2b1462000446578063aa6ca8081462000476578063b3128fc514620004a65762000199565b806333ea3dc811620000fd57806333ea3dc814620002a05780633542758f14620002e95780635754429114620003175780636513aba3146200034557806380f59a6514620003895762000199565b806306fdde03146200019e57806312065fe014620001ce57806320ea8d8614620001fe578063210f5dda146200022c5780632e7700f014620002705762000199565b3662000199573373ffffffffffffffffffffffffffffffffffffffff167f90890809c654f11d6e72a28fa60149770a0d11ec6c92319d6ceb2bb0a4ea1a1534476040516200018f92919062002167565b60405180910390a2005b600080fd5b348015620001ab57600080fd5b50620001b6620005d3565b604051620001c591906200222e565b60405180910390f35b348015620001db57600080fd5b50620001e662000669565b604051620001f5919062002252565b60405180910390f35b3480156200020b57600080fd5b506200022a6004803603810190620002249190620022b4565b62000671565b005b3480156200023957600080fd5b5062000258600480360381019062000252919062002475565b6200095f565b604051620002679190620025b0565b60405180910390f35b3480156200027d57600080fd5b506200028862000aa2565b60405162000297919062002252565b60405180910390f35b348015620002ad57600080fd5b50620002cc6004803603810190620002c69190620022b4565b62000aaf565b604051620002e0969594939291906200266c565b60405180910390f35b348015620002f657600080fd5b506200031560048036038101906200030f919062002711565b62000bf5565b005b3480156200032457600080fd5b506200034360048036038101906200033d91906200282b565b62000e0d565b005b3480156200035257600080fd5b506200037160048036038101906200036b9190620028bc565b620010e4565b60405162000380919062002252565b60405180910390f35b3480156200039657600080fd5b50620003b56004803603810190620003af919062002903565b6200116d565b604051620003c491906200294a565b60405180910390f35b348015620003da57600080fd5b50620003e56200119c565b604051620003f4919062002b51565b60405180910390f35b3480156200040a57600080fd5b50620004296004803603810190620004239190620022b4565b62001372565b6040516200043d9695949392919062002b75565b60405180910390f35b3480156200045357600080fd5b506200045e6200149c565b6040516200046d919062002ca6565b60405180910390f35b3480156200048357600080fd5b506200048e6200152c565b6040516200049d919062002ca6565b60405180910390f35b348015620004b357600080fd5b50620004d26004803603810190620004cc919062002cca565b620015bc565b005b348015620004e157600080fd5b50620005006004803603810190620004fa9190620022b4565b62001799565b005b3480156200050f57600080fd5b506200051a62001a8a565b60405162000529919062002252565b60405180910390f35b3480156200053f57600080fd5b506200055e6004803603810190620005589190620022b4565b62001a90565b005b3480156200056d57600080fd5b506200058c600480360381019062000586919062002d41565b62001ed1565b005b3480156200059b57600080fd5b50620005ba6004803603810190620005b4919062002cca565b6200205d565b604051620005ca92919062002d88565b60405180910390f35b60008054620005e29062002deb565b80601f0160208091040260200160405190810160405280929190818152602001828054620006109062002deb565b8015620006615780601f10620006355761010080835404028352916020019162000661565b820191906000526020600020905b8154815290600101906020018083116200064357829003601f168201915b505050505081565b600047905090565b600560003373ffffffffffffffffffffffffffffffffffffffff1673ffffffffffffffffffffffffffffffffffffffff16815260200190815260200160002060009054906101000a900460ff1662000700576040517f08c379a0000000000000000000000000000000000000000000000000000000008152600401620006f79062002e70565b60405180910390fd5b8060088054905081106200074b576040517f08c379a0000000000000000000000000000000000000000000000000000000008152600401620007429062002ee2565b60405180910390fd5b816008818154811062000763576200076262002f04565b5b906000526020600020906005020160040160009054906101000a900460ff1615620007c5576040517f08c379a0000000000000000000000000000000000000000000000000000000008152600401620007bc9062002f83565b60405180910390fd5b600060088481548110620007de57620007dd62002f04565b5b906000526020600020906005020190506006600085815260200190815260200160002060003373ffffffffffffffffffffffffffffffffffffffff1673ffffffffffffffffffffffffffffffffffffffff16815260200190815260200160002060009054906101000a900460ff166200088e576040517f08c379a0000000000000000000000000000000000000000000000000000000008152600401620008859062002ff5565b60405180910390fd5b6001816003016000828254620008a5919062003046565b9250508190555060006006600086815260200190815260200160002060003373ffffffffffffffffffffffffffffffffffffffff1673ffffffffffffffffffffffffffffffffffffffff16815260200190815260200160002060006101000a81548160ff021916908315150217905550833373ffffffffffffffffffffffffffffffffffffffff167ff0dca620e2e81f7841d07bcc105e1704fb01475b278a9d4c236e1c62945edd5560405160405180910390a350505050565b6000600560003373ffffffffffffffffffffffffffffffffffffffff1673ffffffffffffffffffffffffffffffffffffffff16815260200190815260200160002060009054906101000a900460ff16620009f0576040517f08c379a0000000000000000000000000000000000000000000000000000000008152600401620009e79062002e70565b60405180910390fd5b60008585858560405162000a04906200213e565b62000a13949392919062003092565b604051809103906000f08015801562000a30573d6000803e3d6000fd5b5090506003819080600181540180825580915050600190039060005260206000200160009091909190916101000a81548173ffffffffffffffffffffffffffffffffffffffff021916908373ffffffffffffffffffffffffffffffffffffffff16021790555080915050949350505050565b6000600880549050905090565b60008060606000806000806008888154811062000ad15762000ad062002f04565b5b906000526020600020906005020190508060000160009054906101000a900473ffffffffffffffffffffffffffffffffffffffff168160010154826002018360040160009054906101000a900460ff1684600301548560040160019054906101000a900473ffffffffffffffffffffffffffffffffffffffff1683805462000b599062002deb565b80601f016020809104026020016040519081016040528092919081815260200182805462000b879062002deb565b801562000bd85780601f1062000bac5761010080835404028352916020019162000bd8565b820191906000526020600020905b81548152906001019060200180831162000bba57829003601f168201915b505050505093509650965096509650965096505091939550919395565b600560003373ffffffffffffffffffffffffffffffffffffffff1673ffffffffffffffffffffffffffffffffffffffff16815260200190815260200160002060009054906101000a900460ff1662000c84576040517f08c379a000000000000000000000000000000000000000000000000000000000815260040162000c7b9062002e70565b60405180910390fd5b600560008373ffffffffffffffffffffffffffffffffffffffff1673ffffffffffffffffffffffffffffffffffffffff16815260200190815260200160002060009054906101000a900460ff161562000d14576040517f08c379a000000000000000000000000000000000000000000000000000000000815260040162000d0b906200313d565b60405180910390fd5b6002829080600181540180825580915050600190039060005260206000200160009091909190916101000a81548173ffffffffffffffffffffffffffffffffffffffff021916908373ffffffffffffffffffffffffffffffffffffffff16021790555080600760008473ffffffffffffffffffffffffffffffffffffffff1673ffffffffffffffffffffffffffffffffffffffff168152602001908152602001600020908162000dc5919062003327565b508173ffffffffffffffffffffffffffffffffffffffff167fac1e9ef41b54c676ccf449d83ae6f2624bcdce8f5b93a6b48ce95874c332693d60405160405180910390a25050565b600560003373ffffffffffffffffffffffffffffffffffffffff1673ffffffffffffffffffffffffffffffffffffffff16815260200190815260200160002060009054906101000a900460ff1662000e9c576040517f08c379a000000000000000000000000000000000000000000000000000000000815260040162000e939062002e70565b60405180910390fd5b6000600880549050905060086040518060c001604052808773ffffffffffffffffffffffffffffffffffffffff168152602001868152602001858152602001600181526020016000151581526020018473ffffffffffffffffffffffffffffffffffffffff16815250908060018154018082558091505060019003906000526020600020906005020160009091909190915060008201518160000160006101000a81548173ffffffffffffffffffffffffffffffffffffffff021916908373ffffffffffffffffffffffffffffffffffffffff16021790555060208201518160010155604082015181600201908162000f96919062003473565b506060820151816003015560808201518160040160006101000a81548160ff02191690831515021790555060a08201518160040160016101000a81548173ffffffffffffffffffffffffffffffffffffffff021916908373ffffffffffffffffffffffffffffffffffffffff160217905550505060016006600083815260200190815260200160002060003373ffffffffffffffffffffffffffffffffffffffff1673ffffffffffffffffffffffffffffffffffffffff16815260200190815260200160002060006101000a81548160ff0219169083151502179055508473ffffffffffffffffffffffffffffffffffffffff16813373ffffffffffffffffffffffffffffffffffffffff167fd5a05bf70715ad82a09a756320284a1b54c9ff74cd0f8cce6219e79b563fe59d8787604051620010d59291906200355a565b60405180910390a45050505050565b60008273ffffffffffffffffffffffffffffffffffffffff166370a08231836040518263ffffffff1660e01b81526004016200112191906200358e565b602060405180830381865afa1580156200113f573d6000803e3d6000fd5b505050506040513d601f19601f82011682018060405250810190620011659190620035c2565b905092915050565b60066020528160005260406000206020528060005260406000206000915091509054906101000a900460ff1681565b60606008805480602002602001604051908101604052809291908181526020016000905b828210156200136957838290600052602060002090600502016040518060c00160405290816000820160009054906101000a900473ffffffffffffffffffffffffffffffffffffffff1673ffffffffffffffffffffffffffffffffffffffff1673ffffffffffffffffffffffffffffffffffffffff16815260200160018201548152602001600282018054620012569062002deb565b80601f0160208091040260200160405190810160405280929190818152602001828054620012849062002deb565b8015620012d55780601f10620012a957610100808354040283529160200191620012d5565b820191906000526020600020905b815481529060010190602001808311620012b757829003601f168201915b50505050508152602001600382015481526020016004820160009054906101000a900460ff161515151581526020016004820160019054906101000a900473ffffffffffffffffffffffffffffffffffffffff1673ffffffffffffffffffffffffffffffffffffffff1673ffffffffffffffffffffffffffffffffffffffff168152505081526020019060010190620011c0565b50505050905090565b600881815481106200138357600080fd5b90600052602060002090600502016000915090508060000160009054906101000a900473ffffffffffffffffffffffffffffffffffffffff1690806001015490806002018054620013d49062002deb565b80601f0160208091040260200160405190810160405280929190818152602001828054620014029062002deb565b8015620014535780601f10620014275761010080835404028352916020019162001453565b820191906000526020600020905b8154815290600101906020018083116200143557829003601f168201915b5050505050908060030154908060040160009054906101000a900460ff16908060040160019054906101000a900473ffffffffffffffffffffffffffffffffffffffff16905086565b606060028054806020026020016040519081016040528092919081815260200182805480156200152257602002820191906000526020600020905b8160009054906101000a900473ffffffffffffffffffffffffffffffffffffffff1673ffffffffffffffffffffffffffffffffffffffff1681526020019060010190808311620014d7575b5050505050905090565b60606003805480602002602001604051908101604052809291908181526020018280548015620015b257602002820191906000526020600020905b8160009054906101000a900473ffffffffffffffffffffffffffffffffffffffff1673ffffffffffffffffffffffffffffffffffffffff168152602001906001019080831162001567575b5050505050905090565b600560003373ffffffffffffffffffffffffffffffffffffffff1673ffffffffffffffffffffffffffffffffffffffff16815260200190815260200160002060009054906101000a900460ff166200164b576040517f08c379a0000000000000000000000000000000000000000000000000000000008152600401620016429062002e70565b60405180910390fd5b600460008273ffffffffffffffffffffffffffffffffffffffff1673ffffffffffffffffffffffffffffffffffffffff16815260200190815260200160002060009054906101000a900460ff1615620016db576040517f08c379a0000000000000000000000000000000000000000000000000000000008152600401620016d29062003644565b60405180910390fd5b6001600460008373ffffffffffffffffffffffffffffffffffffffff1673ffffffffffffffffffffffffffffffffffffffff16815260200190815260200160002060006101000a81548160ff0219169083151502179055506003819080600181540180825580915050600190039060005260206000200160009091909190916101000a81548173ffffffffffffffffffffffffffffffffffffffff021916908373ffffffffffffffffffffffffffffffffffffffff16021790555050565b600560003373ffffffffffffffffffffffffffffffffffffffff1673ffffffffffffffffffffffffffffffffffffffff16815260200190815260200160002060009054906101000a900460ff1662001828576040517f08c379a00000000000000000000000000000000000000000000000000000000081526004016200181f9062002e70565b60405180910390fd5b80600880549050811062001873576040517f08c379a00000000000000000000000000000000000000000000000000000000081526004016200186a9062002ee2565b60405180910390fd5b81600881815481106200188b576200188a62002f04565b5b906000526020600020906005020160040160009054906101000a900460ff1615620018ed576040517f08c379a0000000000000000000000000000000000000000000000000000000008152600401620018e49062002f83565b60405180910390fd5b826006600082815260200190815260200160002060003373ffffffffffffffffffffffffffffffffffffffff1673ffffffffffffffffffffffffffffffffffffffff16815260200190815260200160002060009054906101000a900460ff16156200198f576040517f08c379a00000000000000000000000000000000000000000000000000000000081526004016200198690620036b6565b60405180910390fd5b600060088581548110620019a857620019a762002f04565b5b906000526020600020906005020190506001816003016000828254620019cf9190620036d8565b9250508190555060016006600087815260200190815260200160002060003373ffffffffffffffffffffffffffffffffffffffff1673ffffffffffffffffffffffffffffffffffffffff16815260200190815260200160002060006101000a81548160ff021916908315150217905550843373ffffffffffffffffffffffffffffffffffffffff167f5cbe105e36805f7820e291f799d5794ff948af2a5f664e580382defb6339004160405160405180910390a35050505050565b60015481565b600560003373ffffffffffffffffffffffffffffffffffffffff1673ffffffffffffffffffffffffffffffffffffffff16815260200190815260200160002060009054906101000a900460ff1662001b1f576040517f08c379a000000000000000000000000000000000000000000000000000000000815260040162001b169062002e70565b60405180910390fd5b80600880549050811062001b6a576040517f08c379a000000000000000000000000000000000000000000000000000000000815260040162001b619062002ee2565b60405180910390fd5b816008818154811062001b825762001b8162002f04565b5b906000526020600020906005020160040160009054906101000a900460ff161562001be4576040517f08c379a000000000000000000000000000000000000000000000000000000000815260040162001bdb9062002f83565b60405180910390fd5b60006008848154811062001bfd5762001bfc62002f04565b5b906000526020600020906005020190506001548160030154101562001c59576040517f08c379a000000000000000000000000000000000000000000000000000000000815260040162001c509062003763565b60405180910390fd5b60018160040160006101000a81548160ff021916908315150217905550600073ffffffffffffffffffffffffffffffffffffffff168160040160019054906101000a900473ffffffffffffffffffffffffffffffffffffffff1673ffffffffffffffffffffffffffffffffffffffff161462001da5578060040160019054906101000a900473ffffffffffffffffffffffffffffffffffffffff1673ffffffffffffffffffffffffffffffffffffffff1663a9059cbb8260000160009054906101000a900473ffffffffffffffffffffffffffffffffffffffff1683600101546040518363ffffffff1660e01b815260040162001d5892919062003785565b6020604051808303816000875af115801562001d78573d6000803e3d6000fd5b505050506040513d601f19601f8201168201806040525081019062001d9e9190620037e3565b5062001e87565b60008160000160009054906101000a900473ffffffffffffffffffffffffffffffffffffffff1673ffffffffffffffffffffffffffffffffffffffff1682600101548360020160405162001dfa9190620038af565b60006040518083038185875af1925050503d806000811462001e39576040519150601f19603f3d011682016040523d82523d6000602084013e62001e3e565b606091505b505090508062001e85576040517f08c379a000000000000000000000000000000000000000000000000000000000815260040162001e7c9062003918565b60405180910390fd5b505b833373ffffffffffffffffffffffffffffffffffffffff167f5445f318f4f5fcfb66592e68e0cc5822aa15664039bd5f0ffde24c5a8142b1ac60405160405180910390a350505050565b600560003373ffffffffffffffffffffffffffffffffffffffff1673ffffffffffffffffffffffffffffffffffffffff16815260200190815260200160002060009054906101000a900460ff1662001f60576040517f08c379a000000000000000000000000000000000000000000000000000000000815260040162001f579062002e70565b60405180910390fd5b47811062001fa5576040517f08c379a000000000000000000000000000000000000000000000000000000000815260040162001f9c906200398a565b60405180910390fd5b60008273ffffffffffffffffffffffffffffffffffffffff168260405162001fcd90620039fc565b60006040518083038185875af1925050503d80600081146200200c576040519150601f19603f3d011682016040523d82523d6000602084013e62002011565b606091505b505090508062002058576040517f08c379a00000000000000000000000000000000000000000000000000000000081526004016200204f9062003918565b60405180910390fd5b505050565b6000606082600760008573ffffffffffffffffffffffffffffffffffffffff1673ffffffffffffffffffffffffffffffffffffffff168152602001908152602001600020808054620020af9062002deb565b80601f0160208091040260200160405190810160405280929190818152602001828054620020dd9062002deb565b80156200212e5780601f1062002102576101008083540402835291602001916200212e565b820191906000526020600020905b8154815290600101906020018083116200211057829003601f168201915b5050505050905091509150915091565b6113ba8062003a1483390190565b6000819050919050565b62002161816200214c565b82525050565b60006040820190506200217e600083018562002156565b6200218d602083018462002156565b9392505050565b600081519050919050565b600082825260208201905092915050565b60005b83811015620021d0578082015181840152602081019050620021b3565b60008484015250505050565b6000601f19601f8301169050919050565b6000620021fa8262002194565b6200220681856200219f565b935062002218818560208601620021b0565b6200222381620021dc565b840191505092915050565b600060208201905081810360008301526200224a8184620021ed565b905092915050565b600060208201905062002269600083018462002156565b92915050565b6000604051905090565b600080fd5b600080fd5b6200228e816200214c565b81146200229a57600080fd5b50565b600081359050620022ae8162002283565b92915050565b600060208284031215620022cd57620022cc62002279565b5b6000620022dd848285016200229d565b91505092915050565b600080fd5b600080fd5b7f4e487b7100000000000000000000000000000000000000000000000000000000600052604160045260246000fd5b6200232a82620021dc565b810181811067ffffffffffffffff821117156200234c576200234b620022f0565b5b80604052505050565b6000620023616200226f565b90506200236f82826200231f565b919050565b600067ffffffffffffffff821115620023925762002391620022f0565b5b6200239d82620021dc565b9050602081019050919050565b82818337600083830152505050565b6000620023d0620023ca8462002374565b62002355565b905082815260208101848484011115620023ef57620023ee620022eb565b5b620023fc848285620023aa565b509392505050565b600082601f8301126200241c576200241b620022e6565b5b81356200242e848260208601620023b9565b91505092915050565b600060ff82169050919050565b6200244f8162002437565b81146200245b57600080fd5b50565b6000813590506200246f8162002444565b92915050565b6000806000806080858703121562002492576200249162002279565b5b600085013567ffffffffffffffff811115620024b357620024b26200227e565b5b620024c18782880162002404565b945050602085013567ffffffffffffffff811115620024e557620024e46200227e565b5b620024f38782880162002404565b935050604062002506878288016200245e565b925050606062002519878288016200229d565b91505092959194509250565b600073ffffffffffffffffffffffffffffffffffffffff82169050919050565b6000819050919050565b6000620025706200256a620025648462002525565b62002545565b62002525565b9050919050565b600062002584826200254f565b9050919050565b6000620025988262002577565b9050919050565b620025aa816200258b565b82525050565b6000602082019050620025c760008301846200259f565b92915050565b6000620025da8262002525565b9050919050565b620025ec81620025cd565b82525050565b600081519050919050565b600082825260208201905092915050565b60006200261b82620025f2565b620026278185620025fd565b935062002639818560208601620021b0565b6200264481620021dc565b840191505092915050565b60008115159050919050565b62002666816200264f565b82525050565b600060c082019050620026836000830189620025e1565b62002692602083018862002156565b8181036040830152620026a681876200260e565b9050620026b760608301866200265b565b620026c6608083018562002156565b620026d560a0830184620025e1565b979650505050505050565b620026eb81620025cd565b8114620026f757600080fd5b50565b6000813590506200270b81620026e0565b92915050565b600080604083850312156200272b576200272a62002279565b5b60006200273b85828601620026fa565b925050602083013567ffffffffffffffff8111156200275f576200275e6200227e565b5b6200276d8582860162002404565b9150509250929050565b600067ffffffffffffffff821115620027955762002794620022f0565b5b620027a082620021dc565b9050602081019050919050565b6000620027c4620027be8462002777565b62002355565b905082815260208101848484011115620027e357620027e2620022eb565b5b620027f0848285620023aa565b509392505050565b600082601f83011262002810576200280f620022e6565b5b813562002822848260208601620027ad565b91505092915050565b6000806000806080858703121562002848576200284762002279565b5b60006200285887828801620026fa565b94505060206200286b878288016200229d565b935050604085013567ffffffffffffffff8111156200288f576200288e6200227e565b5b6200289d87828801620027f8565b9250506060620028b087828801620026fa565b91505092959194509250565b60008060408385031215620028d657620028d562002279565b5b6000620028e685828601620026fa565b9250506020620028f985828601620026fa565b9150509250929050565b600080604083850312156200291d576200291c62002279565b5b60006200292d858286016200229d565b92505060206200294085828601620026fa565b9150509250929050565b60006020820190506200296160008301846200265b565b92915050565b600081519050919050565b600082825260208201905092915050565b6000819050602082019050919050565b6200299e81620025cd565b82525050565b620029af816200214c565b82525050565b600082825260208201905092915050565b6000620029d382620025f2565b620029df8185620029b5565b9350620029f1818560208601620021b0565b620029fc81620021dc565b840191505092915050565b62002a12816200264f565b82525050565b600060c08301600083015162002a32600086018262002993565b50602083015162002a476020860182620029a4565b506040830151848203604086015262002a618282620029c6565b915050606083015162002a786060860182620029a4565b50608083015162002a8d608086018262002a07565b5060a083015162002aa260a086018262002993565b508091505092915050565b600062002abb838362002a18565b905092915050565b6000602082019050919050565b600062002add8262002967565b62002ae9818562002972565b93508360208202850162002afd8562002983565b8060005b8581101562002b3f578484038952815162002b1d858262002aad565b945062002b2a8362002ac3565b925060208a0199505060018101905062002b01565b50829750879550505050505092915050565b6000602082019050818103600083015262002b6d818462002ad0565b905092915050565b600060c08201905062002b8c6000830189620025e1565b62002b9b602083018862002156565b818103604083015262002baf81876200260e565b905062002bc0606083018662002156565b62002bcf60808301856200265b565b62002bde60a0830184620025e1565b979650505050505050565b600081519050919050565b600082825260208201905092915050565b6000819050602082019050919050565b600062002c23838362002993565b60208301905092915050565b6000602082019050919050565b600062002c498262002be9565b62002c55818562002bf4565b935062002c628362002c05565b8060005b8381101562002c9957815162002c7d888262002c15565b975062002c8a8362002c2f565b92505060018101905062002c66565b5085935050505092915050565b6000602082019050818103600083015262002cc2818462002c3c565b905092915050565b60006020828403121562002ce35762002ce262002279565b5b600062002cf384828501620026fa565b91505092915050565b600062002d098262002525565b9050919050565b62002d1b8162002cfc565b811462002d2757600080fd5b50565b60008135905062002d3b8162002d10565b92915050565b6000806040838503121562002d5b5762002d5a62002279565b5b600062002d6b8582860162002d2a565b925050602062002d7e858286016200229d565b9150509250929050565b600060408201905062002d9f6000830185620025e1565b818103602083015262002db38184620021ed565b90509392505050565b7f4e487b7100000000000000000000000000000000000000000000000000000000600052602260045260246000fd5b6000600282049050600182168062002e0457607f821691505b60208210810362002e1a5762002e1962002dbc565b5b50919050565b7f4e6f74206f776e65720000000000000000000000000000000000000000000000600082015250565b600062002e586009836200219f565b915062002e658262002e20565b602082019050919050565b6000602082019050818103600083015262002e8b8162002e49565b9050919050565b7f747820646f6573206e6f74206578697374000000000000000000000000000000600082015250565b600062002eca6011836200219f565b915062002ed78262002e92565b602082019050919050565b6000602082019050818103600083015262002efd8162002ebb565b9050919050565b7f4e487b7100000000000000000000000000000000000000000000000000000000600052603260045260246000fd5b7f747820616c726561647920657865637574656400000000000000000000000000600082015250565b600062002f6b6013836200219f565b915062002f788262002f33565b602082019050919050565b6000602082019050818103600083015262002f9e8162002f5c565b9050919050565b7f7478206e6f7420636f6e6669726d656400000000000000000000000000000000600082015250565b600062002fdd6010836200219f565b915062002fea8262002fa5565b602082019050919050565b60006020820190508181036000830152620030108162002fce565b9050919050565b7f4e487b7100000000000000000000000000000000000000000000000000000000600052601160045260246000fd5b600062003053826200214c565b915062003060836200214c565b92508282039050818111156200307b576200307a62003017565b5b92915050565b6200308c8162002437565b82525050565b60006080820190508181036000830152620030ae8187620021ed565b90508181036020830152620030c48186620021ed565b9050620030d5604083018562003081565b620030e4606083018462002156565b95945050505050565b7f4f776e6572206e6f7420756e6971756500000000000000000000000000000000600082015250565b6000620031256010836200219f565b91506200313282620030ed565b602082019050919050565b60006020820190508181036000830152620031588162003116565b9050919050565b60008190508160005260206000209050919050565b60006020601f8301049050919050565b600082821b905092915050565b600060088302620031c37fffffffffffffffffffffffffffffffffffffffffffffffffffffffffffffffff8262003184565b620031cf868362003184565b95508019841693508086168417925050509392505050565b60006200320862003202620031fc846200214c565b62002545565b6200214c565b9050919050565b6000819050919050565b6200322483620031e7565b6200323c62003233826200320f565b84845462003191565b825550505050565b600090565b6200325362003244565b6200326081848462003219565b505050565b5b8181101562003288576200327c60008262003249565b60018101905062003266565b5050565b601f821115620032d757620032a1816200315f565b620032ac8462003174565b81016020851015620032bc578190505b620032d4620032cb8562003174565b83018262003265565b50505b505050565b600082821c905092915050565b6000620032fc60001984600802620032dc565b1980831691505092915050565b6000620033178383620032e9565b9150826002028217905092915050565b620033328262002194565b67ffffffffffffffff8111156200334e576200334d620022f0565b5b6200335a825462002deb565b620033678282856200328c565b600060209050601f8311600181146200339f57600084156200338a578287015190505b62003396858262003309565b86555062003406565b601f198416620033af866200315f565b60005b82811015620033d957848901518255600182019150602085019450602081019050620033b2565b86831015620033f95784890151620033f5601f891682620032e9565b8355505b6001600288020188555050505b505050505050565b60008190508160005260206000209050919050565b601f8211156200346e5762003438816200340e565b620034438462003174565b8101602085101562003453578190505b6200346b620034628562003174565b83018262003265565b50505b505050565b6200347e82620025f2565b67ffffffffffffffff8111156200349a5762003499620022f0565b5b620034a6825462002deb565b620034b382828562003423565b600060209050601f831160018114620034eb5760008415620034d6578287015190505b620034e2858262003309565b86555062003552565b601f198416620034fb866200340e565b60005b828110156200352557848901518255600182019150602085019450602081019050620034fe565b8683101562003545578489015162003541601f891682620032e9565b8355505b6001600288020188555050505b505050505050565b600060408201905062003571600083018562002156565b81810360208301526200358581846200260e565b90509392505050565b6000602082019050620035a56000830184620025e1565b92915050565b600081519050620035bc8162002283565b92915050565b600060208284031215620035db57620035da62002279565b5b6000620035eb84828501620035ab565b91505092915050565b7f546f6b656e206e6f7420756e6971756500000000000000000000000000000000600082015250565b60006200362c6010836200219f565b91506200363982620035f4565b602082019050919050565b600060208201905081810360008301526200365f816200361d565b9050919050565b7f747820616c726561647920636f6e6669726d6564000000000000000000000000600082015250565b60006200369e6014836200219f565b9150620036ab8262003666565b602082019050919050565b60006020820190508181036000830152620036d1816200368f565b9050919050565b6000620036e5826200214c565b9150620036f2836200214c565b92508282019050808211156200370d576200370c62003017565b5b92915050565b7f63616e6e6f742065786563757465207478000000000000000000000000000000600082015250565b60006200374b6011836200219f565b9150620037588262003713565b602082019050919050565b600060208201905081810360008301526200377e816200373c565b9050919050565b60006040820190506200379c6000830185620025e1565b620037ab602083018462002156565b9392505050565b620037bd816200264f565b8114620037c957600080fd5b50565b600081519050620037dd81620037b2565b92915050565b600060208284031215620037fc57620037fb62002279565b5b60006200380c84828501620037cc565b91505092915050565b600081905092915050565b600081546200382f8162002deb565b6200383b818662003815565b945060018216600081146200385957600181146200386f57620038a6565b60ff1983168652811515820286019350620038a6565b6200387a856200340e565b60005b838110156200389e578154818901526001820191506020810190506200387d565b838801955050505b50505092915050565b6000620038bd828462003820565b915081905092915050565b7f7478206661696c65640000000000000000000000000000000000000000000000600082015250565b6000620039006009836200219f565b91506200390d82620038c8565b602082019050919050565b600060208201905081810360008301526200393381620038f1565b9050919050565b7f4574686572206e6f7420656e6f75676800000000000000000000000000000000600082015250565b6000620039726010836200219f565b91506200397f826200393a565b602082019050919050565b60006020820190508181036000830152620039a58162003963565b9050919050565b7f77697468647261772065746820746f207b5f64657374696e6174696f6e7d0000600082015250565b6000620039e4601e8362003815565b9150620039f182620039ac565b601e82019050919050565b600062003a0982620039d5565b915081905091905056fe60806040523480156200001157600080fd5b50604051620013ba380380620013ba8339818101604052810190620000379190620002d9565b8360009081620000489190620005ca565b5082600190816200005a9190620005ca565b5081600260006101000a81548160ff021916908360ff16021790555080600581905550600554600360003373ffffffffffffffffffffffffffffffffffffffff1673ffffffffffffffffffffffffffffffffffffffff1681526020019081526020016000208190555050505050620006b1565b6000604051905090565b600080fd5b600080fd5b600080fd5b600080fd5b6000601f19601f8301169050919050565b7f4e487b7100000000000000000000000000000000000000000000000000000000600052604160045260246000fd5b6200013682620000eb565b810181811067ffffffffffffffff82111715620001585762000157620000fc565b5b80604052505050565b60006200016d620000cd565b90506200017b82826200012b565b919050565b600067ffffffffffffffff8211156200019e576200019d620000fc565b5b620001a982620000eb565b9050602081019050919050565b60005b83811015620001d6578082015181840152602081019050620001b9565b60008484015250505050565b6000620001f9620001f38462000180565b62000161565b905082815260208101848484011115620002185762000217620000e6565b5b62000225848285620001b6565b509392505050565b600082601f830112620002455762000244620000e1565b5b815162000257848260208601620001e2565b91505092915050565b600060ff82169050919050565b620002788162000260565b81146200028457600080fd5b50565b60008151905062000298816200026d565b92915050565b6000819050919050565b620002b3816200029e565b8114620002bf57600080fd5b50565b600081519050620002d381620002a8565b92915050565b60008060008060808587031215620002f657620002f5620000d7565b5b600085015167ffffffffffffffff811115620003175762000316620000dc565b5b62000325878288016200022d565b945050602085015167ffffffffffffffff811115620003495762000348620000dc565b5b62000357878288016200022d565b93505060406200036a8782880162000287565b92505060606200037d87828801620002c2565b91505092959194509250565b600081519050919050565b7f4e487b7100000000000000000000000000000000000000000000000000000000600052602260045260246000fd5b60006002820490506001821680620003dc57607f821691505b602082108103620003f257620003f162000394565b5b50919050565b60008190508160005260206000209050919050565b60006020601f8301049050919050565b600082821b905092915050565b6000600883026200045c7fffffffffffffffffffffffffffffffffffffffffffffffffffffffffffffffff826200041d565b6200046886836200041d565b95508019841693508086168417925050509392505050565b6000819050919050565b6000620004ab620004a56200049f846200029e565b62000480565b6200029e565b9050919050565b6000819050919050565b620004c7836200048a565b620004df620004d682620004b2565b8484546200042a565b825550505050565b600090565b620004f6620004e7565b62000503818484620004bc565b505050565b5b818110156200052b576200051f600082620004ec565b60018101905062000509565b5050565b601f8211156200057a576200054481620003f8565b6200054f846200040d565b810160208510156200055f578190505b620005776200056e856200040d565b83018262000508565b50505b505050565b600082821c905092915050565b60006200059f600019846008026200057f565b1980831691505092915050565b6000620005ba83836200058c565b9150826002028217905092915050565b620005d58262000389565b67ffffffffffffffff811115620005f157620005f0620000fc565b5b620005fd8254620003c3565b6200060a8282856200052f565b600060209050601f8311600181146200064257600084156200062d578287015190505b620006398582620005ac565b865550620006a9565b601f1984166200065286620003f8565b60005b828110156200067c5784890151825560018201915060208501945060208101905062000655565b868310156200069c578489015162000698601f8916826200058c565b8355505b6001600288020188555050505b505050505050565b610cf980620006c16000396000f3fe608060405234801561001057600080fd5b50600436106100935760003560e01c8063313ce56711610066578063313ce5671461013457806370a082311461015257806395d89b4114610182578063a9059cbb146101a0578063dd62ed3e146101d057610093565b806306fdde0314610098578063095ea7b3146100b657806318160ddd146100e657806323b872dd14610104575b600080fd5b6100a0610200565b6040516100ad919061097a565b60405180910390f35b6100d060048036038101906100cb9190610a35565b61028e565b6040516100dd9190610a90565b60405180910390f35b6100ee610380565b6040516100fb9190610aba565b60405180910390f35b61011e60048036038101906101199190610ad5565b61038a565b60405161012b9190610a90565b60405180910390f35b61013c610610565b6040516101499190610b44565b60405180910390f35b61016c60048036038101906101679190610b5f565b610623565b6040516101799190610aba565b60405180910390f35b61018a61066c565b604051610197919061097a565b60405180910390f35b6101ba60048036038101906101b59190610a35565b6106fa565b6040516101c79190610a90565b60405180910390f35b6101ea60048036038101906101e59190610b8c565b610863565b6040516101f79190610aba565b60405180910390f35b6000805461020d90610bfb565b80601f016020809104026020016040519081016040528092919081815260200182805461023990610bfb565b80156102865780601f1061025b57610100808354040283529160200191610286565b820191906000526020600020905b81548152906001019060200180831161026957829003601f168201915b505050505081565b600081600460003373ffffffffffffffffffffffffffffffffffffffff1673ffffffffffffffffffffffffffffffffffffffff16815260200190815260200160002060008573ffffffffffffffffffffffffffffffffffffffff1673ffffffffffffffffffffffffffffffffffffffff168152602001908152602001600020819055508273ffffffffffffffffffffffffffffffffffffffff163373ffffffffffffffffffffffffffffffffffffffff167f8c5be1e5ebec7d5bd14f71427d1e84f3dd0314c0f7b2291e5b200ac8c7c3b9258460405161036e9190610aba565b60405180910390a36001905092915050565b6000600554905090565b6000600360008573ffffffffffffffffffffffffffffffffffffffff1673ffffffffffffffffffffffffffffffffffffffff168152602001908152602001600020548211156103d857600080fd5b600460008573ffffffffffffffffffffffffffffffffffffffff1673ffffffffffffffffffffffffffffffffffffffff16815260200190815260200160002060003373ffffffffffffffffffffffffffffffffffffffff1673ffffffffffffffffffffffffffffffffffffffff1681526020019081526020016000205482111561046157600080fd5b81600360008673ffffffffffffffffffffffffffffffffffffffff1673ffffffffffffffffffffffffffffffffffffffff16815260200190815260200160002060008282546104b09190610c5b565b9250508190555081600460008673ffffffffffffffffffffffffffffffffffffffff1673ffffffffffffffffffffffffffffffffffffffff16815260200190815260200160002060003373ffffffffffffffffffffffffffffffffffffffff1673ffffffffffffffffffffffffffffffffffffffff16815260200190815260200160002060008282546105439190610c5b565b9250508190555081600360008573ffffffffffffffffffffffffffffffffffffffff1673ffffffffffffffffffffffffffffffffffffffff16815260200190815260200160002060008282546105999190610c8f565b925050819055508273ffffffffffffffffffffffffffffffffffffffff168473ffffffffffffffffffffffffffffffffffffffff167fddf252ad1be2c89b69c2b068fc378daa952ba7f163c4a11628f55a4df523b3ef846040516105fd9190610aba565b60405180910390a3600190509392505050565b600260009054906101000a900460ff1681565b6000600360008373ffffffffffffffffffffffffffffffffffffffff1673ffffffffffffffffffffffffffffffffffffffff168152602001908152602001600020549050919050565b6001805461067990610bfb565b80601f01602080910402602001604051908101604052809291908181526020018280546106a590610bfb565b80156106f25780601f106106c7576101008083540402835291602001916106f2565b820191906000526020600020905b8154815290600101906020018083116106d557829003601f168201915b505050505081565b6000600360003373ffffffffffffffffffffffffffffffffffffffff1673ffffffffffffffffffffffffffffffffffffffff1681526020019081526020016000205482111561074857600080fd5b81600360003373ffffffffffffffffffffffffffffffffffffffff1673ffffffffffffffffffffffffffffffffffffffff16815260200190815260200160002060008282546107979190610c5b565b9250508190555081600360008573ffffffffffffffffffffffffffffffffffffffff1673ffffffffffffffffffffffffffffffffffffffff16815260200190815260200160002060008282546107ed9190610c8f565b925050819055508273ffffffffffffffffffffffffffffffffffffffff163373ffffffffffffffffffffffffffffffffffffffff167fddf252ad1be2c89b69c2b068fc378daa952ba7f163c4a11628f55a4df523b3ef846040516108519190610aba565b60405180910390a36001905092915050565b6000600460008473ffffffffffffffffffffffffffffffffffffffff1673ffffffffffffffffffffffffffffffffffffffff16815260200190815260200160002060008373ffffffffffffffffffffffffffffffffffffffff1673ffffffffffffffffffffffffffffffffffffffff16815260200190815260200160002054905092915050565b600081519050919050565b600082825260208201905092915050565b60005b83811015610924578082015181840152602081019050610909565b60008484015250505050565b6000601f19601f8301169050919050565b600061094c826108ea565b61095681856108f5565b9350610966818560208601610906565b61096f81610930565b840191505092915050565b600060208201905081810360008301526109948184610941565b905092915050565b600080fd5b600073ffffffffffffffffffffffffffffffffffffffff82169050919050565b60006109cc826109a1565b9050919050565b6109dc816109c1565b81146109e757600080fd5b50565b6000813590506109f9816109d3565b92915050565b6000819050919050565b610a12816109ff565b8114610a1d57600080fd5b50565b600081359050610a2f81610a09565b92915050565b60008060408385031215610a4c57610a4b61099c565b5b6000610a5a858286016109ea565b9250506020610a6b85828601610a20565b9150509250929050565b60008115159050919050565b610a8a81610a75565b82525050565b6000602082019050610aa56000830184610a81565b92915050565b610ab4816109ff565b82525050565b6000602082019050610acf6000830184610aab565b92915050565b600080600060608486031215610aee57610aed61099c565b5b6000610afc868287016109ea565b9350506020610b0d868287016109ea565b9250506040610b1e86828701610a20565b9150509250925092565b600060ff82169050919050565b610b3e81610b28565b82525050565b6000602082019050610b596000830184610b35565b92915050565b600060208284031215610b7557610b7461099c565b5b6000610b83848285016109ea565b91505092915050565b60008060408385031215610ba357610ba261099c565b5b6000610bb1858286016109ea565b9250506020610bc2858286016109ea565b9150509250929050565b7f4e487b7100000000000000000000000000000000000000000000000000000000600052602260045260246000fd5b60006002820490506001821680610c1357607f821691505b602082108103610c2657610c25610bcc565b5b50919050565b7f4e487b7100000000000000000000000000000000000000000000000000000000600052601160045260246000fd5b6000610c66826109ff565b9150610c71836109ff565b9250828203905081811115610c8957610c88610c2c565b5b92915050565b6000610c9a826109ff565b9150610ca5836109ff565b9250828201905080821115610cbd57610cbc610c2c565b5b9291505056fea2646970667358221220c2bd52c075a8e6297dbea825d5c5b17b8290cf9f571f816ccccf65532ae0180564736f6c63430008110033a2646970667358221220902e7b0f5853fc76404fd23b95a4617dd7379a824cd2367767f6bc6976d90d8864736f6c63430008110033",
  "immutableReferences": {},
  "source": "// SPDX-License-Identifier: MIT\npragma solidity >=0.7.0 <0.9.0;\n\nimport \"./Token.sol\";\n\ncontract Wallet {\n    event Deposit(address indexed sender, uint amount, uint balance);\n    event SubmitTransaction(\n        address indexed owner,\n        uint indexed txIndex,\n        address indexed to,\n        uint value,\n        bytes data\n    );\n    event ConfirmTransaction(address indexed owner, uint indexed txIndex);\n    event RevokeConfirmation(address indexed owner, uint indexed txIndex);\n    event ExecuteTransaction(address indexed owner, uint indexed txIndex);\n    event AddOwner(address indexed owner);\n\n\n    string public name;\n    uint public numConfirmationsRequired;\n    address[] owners;\n    address[] tokens;\n    mapping(address => bool) isTokenControl;\n    mapping(address => bool) isOwner;\n    mapping(uint => mapping(address => bool)) public isConfirmed;\n    mapping(address => string) ownerNames;\n\n    struct Transaction {\n        address destination;\n        uint value;\n        bytes data;\n        uint numConfirmations;\n        bool executed;\n        address token;\n    }\n\n    Transaction[] public transactions;\n\n    // modifier\n    modifier onlyOwner() {\n        require(isOwner[msg.sender], \"Not owner\");\n        _;\n    }\n\n    modifier txExists(uint _txIndex) {\n        require(_txIndex < transactions.length, \"tx does not exist\");\n        _;\n    }\n\n    modifier notExecuted(uint _txIndex) {\n        require(!transactions[_txIndex].executed, \"tx already executed\");\n        _;\n    }\n\n    modifier notConfirmed(uint _txIndex) {\n        require(!isConfirmed[_txIndex][msg.sender], \"tx already confirmed\");\n        _;\n    }\n\n    // Contract constructor\n    constructor(string memory _name, uint _numConfirmationsRequired, address[] memory _owners, string[] memory _ownerNames) payable {\n        require(_owners.length > 0, \"Owners required\");\n        require(_numConfirmationsRequired > 0 &&\n            _numConfirmationsRequired <= _owners.length, \"Invalid number of required confirmations\");\n\n        for(uint i = 0; i < _owners.length; i++) {\n            address owner = _owners[i];\n            require(owner != address(0), \"invalid owner\");\n            require(!isOwner[owner], \"owner not unique\");\n            isOwner[owner] = true;\n            owners.push(owner);\n            ownerNames[owner] = _ownerNames[i];\n        }\n\n        if (isOwner[msg.sender] == false) {\n            owners.push(msg.sender);\n        }\n\n        name = _name;\n        numConfirmationsRequired = _numConfirmationsRequired;\n\n    }\n\n    receive() external payable {\n        emit Deposit(msg.sender, msg.value, address(this).balance);\n    }\n\n    function addOwner(address _owner, string memory _ownerName) public onlyOwner {\n        require(!isOwner[_owner], \"Owner not unique\");\n        owners.push(_owner);\n        ownerNames[_owner] = _ownerName;\n        emit AddOwner(_owner);\n    }\n\n    function withdraw(address payable _destination, uint _amount) external onlyOwner {\n        require(_amount < address(this).balance, \"Ether not enough\");\n        (bool success, ) = _destination.call{value: _amount}(\"withdraw eth to {_destination}\");\n        require(success, \"tx failed\");\n    }\n    function submitTransaction(\n        address _destination,\n        uint _value,\n        bytes memory _data,\n        address _token\n    ) public onlyOwner {\n        uint txIndex = transactions.length;\n        transactions.push(\n            Transaction({\n        destination: _destination,\n        value: _value,\n        data: _data,\n        executed: false,\n        numConfirmations: 1,\n        token: _token\n        }));\n        isConfirmed[txIndex][msg.sender] = true;\n        emit SubmitTransaction(msg.sender, txIndex, _destination, _value, _data);\n    }\n\n    function confirmTransaction(uint _txIndex)\n    public\n    onlyOwner\n    txExists(_txIndex)\n    notExecuted(_txIndex)\n    notConfirmed(_txIndex)\n    {\n        Transaction storage transaction = transactions[_txIndex];\n        transaction.numConfirmations += 1;\n        isConfirmed[_txIndex][msg.sender] = true;\n\n        emit ConfirmTransaction(msg.sender, _txIndex);\n    }\n\n    function executeTransaction(uint _txIndex)\n    public\n    onlyOwner\n    txExists(_txIndex)\n    notExecuted(_txIndex)\n    {\n        Transaction storage transaction = transactions[_txIndex];\n\n        require(\n            transaction.numConfirmations >= numConfirmationsRequired,\n            \"cannot execute tx\"\n        );\n\n        transaction.executed = true;\n        if(transaction.token != address(0)) {\n            W2TCoinERC20(transaction.token).transfer(transaction.destination, transaction.value);\n        } else {\n            (bool success, ) = transaction.destination.call{value: transaction.value}(\n                transaction.data\n            );\n            require(success, \"tx failed\");\n        }\n        emit ExecuteTransaction(msg.sender, _txIndex);\n    }\n\n    function revokeConfirmation(uint _txIndex)\n    public\n    onlyOwner\n    txExists(_txIndex)\n    notExecuted(_txIndex)\n    {\n        Transaction storage transaction = transactions[_txIndex];\n\n        require(isConfirmed[_txIndex][msg.sender], \"tx not confirmed\");\n\n        transaction.numConfirmations -= 1;\n        isConfirmed[_txIndex][msg.sender] = false;\n\n        emit RevokeConfirmation(msg.sender, _txIndex);\n    }\n\n    function getBalance() external view returns (uint) {\n        return address(this).balance;\n    }\n\n    function getOwners() public view returns (address[] memory) {\n        return owners;\n    }\n\n    function getOwner(address _owner) external view returns (address owner, string memory ownerName) {\n        return (\n        _owner,\n        ownerNames[_owner]\n        );\n    }\n\n    function getTransactions() public view returns (Transaction[] memory) {\n        return transactions;\n    }\n\n    function getTokens() public view returns (address[] memory) {\n        return tokens;\n    }\n\n    function getTransactionCount() public view returns (uint) {\n        return transactions.length;\n    }\n\n    function getTransaction(uint _txId) public view returns (\n        address destination,\n        uint256 value,\n        bytes memory data,\n        bool executed,\n        uint256 numConfirmations,\n        address token) {\n        Transaction storage transaction = transactions[_txId];\n\n        return (\n        transaction.destination,\n        transaction.value,\n        transaction.data,\n        transaction.executed,\n        transaction.numConfirmations,\n        transaction.token\n        );\n    }\n\n    // Token Controls\n\n    function addTokenManage(address _address) public onlyOwner {\n        require(!isTokenControl[_address], \"Token not unique\");\n        isTokenControl[_address] = true;\n        tokens.push(_address);\n    }\n    function createToken(string memory _name,\n        string memory _symbol, uint8 _decimals, uint256 _total) public onlyOwner returns(W2TCoinERC20) {\n        W2TCoinERC20 coin = new W2TCoinERC20(_name, _symbol, _decimals, _total);\n        tokens.push(address(coin));\n        return coin;\n    }\n    function getBalanceOfToken(address _addressToken, address _addrWallet) public view returns(uint256) {\n        return W2TCoinERC20(_addressToken).balanceOf(_addrWallet);\n    }\n}",
  "sourcePath": "/Users/tao.duongkhac/Documents/Blockchain/Truffle/contracts/Wallet.sol",
  "compiler": {
    "name": "solc",
    "version": "0.8.17+commit.8df45f5f.Emscripten.clang"
  },
  "schemaVersion": "3.4.11",
  "updatedAt": "2023-03-11T10:12:44.790Z",
  "devdoc": {
    "kind": "dev",
    "methods": {},
    "version": 1
  },
  "userdoc": {
    "kind": "user",
    "methods": {},
    "version": 1
  }
}